{
  "address": "0x3dD25794f3e05a0427C11B0C75Eb30a076Aa01fe",
  "abi": [
    {
      "inputs": [
        {
          "internalType": "address",
          "name": "vrfCoordinatorV2",
          "type": "address"
        },
        {
          "internalType": "bytes32",
          "name": "gasLane",
          "type": "bytes32"
        },
        {
          "internalType": "uint64",
          "name": "subscriptionId",
          "type": "uint64"
        },
        {
          "internalType": "uint32",
          "name": "callbackGasLimit",
          "type": "uint32"
        },
        {
          "internalType": "string[3]",
          "name": "dogTokenUris",
          "type": "string[3]"
        }
      ],
      "stateMutability": "nonpayable",
      "type": "constructor"
    },
    {
      "inputs": [
        {
          "internalType": "address",
          "name": "have",
          "type": "address"
        },
        {
          "internalType": "address",
          "name": "want",
          "type": "address"
        }
      ],
      "name": "OnlyCoordinatorCanFulfill",
      "type": "error"
    },
    {
      "anonymous": false,
      "inputs": [
        {
          "indexed": true,
          "internalType": "address",
          "name": "owner",
          "type": "address"
        },
        {
          "indexed": true,
          "internalType": "address",
          "name": "approved",
          "type": "address"
        },
        {
          "indexed": true,
          "internalType": "uint256",
          "name": "tokenId",
          "type": "uint256"
        }
      ],
      "name": "Approval",
      "type": "event"
    },
    {
      "anonymous": false,
      "inputs": [
        {
          "indexed": true,
          "internalType": "address",
          "name": "owner",
          "type": "address"
        },
        {
          "indexed": true,
          "internalType": "address",
          "name": "operator",
          "type": "address"
        },
        {
          "indexed": false,
          "internalType": "bool",
          "name": "approved",
          "type": "bool"
        }
      ],
      "name": "ApprovalForAll",
      "type": "event"
    },
    {
      "anonymous": false,
      "inputs": [
        {
          "indexed": true,
          "internalType": "address",
          "name": "from",
          "type": "address"
        },
        {
          "indexed": true,
          "internalType": "address",
          "name": "to",
          "type": "address"
        },
        {
          "indexed": true,
          "internalType": "uint256",
          "name": "tokenId",
          "type": "uint256"
        }
      ],
      "name": "Transfer",
      "type": "event"
    },
    {
      "inputs": [],
      "name": "MAX_CHANCE_VALUE",
      "outputs": [
        {
          "internalType": "uint256",
          "name": "",
          "type": "uint256"
        }
      ],
      "stateMutability": "view",
      "type": "function"
    },
    {
      "inputs": [],
      "name": "NUM_WORDS",
      "outputs": [
        {
          "internalType": "uint32",
          "name": "",
          "type": "uint32"
        }
      ],
      "stateMutability": "view",
      "type": "function"
    },
    {
      "inputs": [],
      "name": "REQUEST_CONFIRMATIONS",
      "outputs": [
        {
          "internalType": "uint16",
          "name": "",
          "type": "uint16"
        }
      ],
      "stateMutability": "view",
      "type": "function"
    },
    {
      "inputs": [
        {
          "internalType": "address",
          "name": "to",
          "type": "address"
        },
        {
          "internalType": "uint256",
          "name": "tokenId",
          "type": "uint256"
        }
      ],
      "name": "approve",
      "outputs": [],
      "stateMutability": "nonpayable",
      "type": "function"
    },
    {
      "inputs": [
        {
          "internalType": "address",
          "name": "owner",
          "type": "address"
        }
      ],
      "name": "balanceOf",
      "outputs": [
        {
          "internalType": "uint256",
          "name": "",
          "type": "uint256"
        }
      ],
      "stateMutability": "view",
      "type": "function"
    },
    {
      "inputs": [
        {
          "internalType": "uint256",
          "name": "tokenId",
          "type": "uint256"
        }
      ],
      "name": "getApproved",
      "outputs": [
        {
          "internalType": "address",
          "name": "",
          "type": "address"
        }
      ],
      "stateMutability": "view",
      "type": "function"
    },
    {
      "inputs": [
        {
          "internalType": "uint256",
          "name": "moddedRng",
          "type": "uint256"
        }
      ],
      "name": "getBreedFromModdedRng",
      "outputs": [
        {
          "internalType": "uint256",
          "name": "",
          "type": "uint256"
        }
      ],
      "stateMutability": "pure",
      "type": "function"
    },
    {
      "inputs": [],
      "name": "getChanceArray",
      "outputs": [
        {
          "internalType": "uint256[3]",
          "name": "",
          "type": "uint256[3]"
        }
      ],
      "stateMutability": "pure",
      "type": "function"
    },
    {
      "inputs": [],
      "name": "i_callbackGasLimit",
      "outputs": [
        {
          "internalType": "uint32",
          "name": "",
          "type": "uint32"
        }
      ],
      "stateMutability": "view",
      "type": "function"
    },
    {
      "inputs": [],
      "name": "i_gasLane",
      "outputs": [
        {
          "internalType": "bytes32",
          "name": "",
          "type": "bytes32"
        }
      ],
      "stateMutability": "view",
      "type": "function"
    },
    {
      "inputs": [],
      "name": "i_subscriptionId",
      "outputs": [
        {
          "internalType": "uint64",
          "name": "",
          "type": "uint64"
        }
      ],
      "stateMutability": "view",
      "type": "function"
    },
    {
      "inputs": [
        {
          "internalType": "address",
          "name": "owner",
          "type": "address"
        },
        {
          "internalType": "address",
          "name": "operator",
          "type": "address"
        }
      ],
      "name": "isApprovedForAll",
      "outputs": [
        {
          "internalType": "bool",
          "name": "",
          "type": "bool"
        }
      ],
      "stateMutability": "view",
      "type": "function"
    },
    {
      "inputs": [],
      "name": "name",
      "outputs": [
        {
          "internalType": "string",
          "name": "",
          "type": "string"
        }
      ],
      "stateMutability": "view",
      "type": "function"
    },
    {
      "inputs": [
        {
          "internalType": "uint256",
          "name": "tokenId",
          "type": "uint256"
        }
      ],
      "name": "ownerOf",
      "outputs": [
        {
          "internalType": "address",
          "name": "",
          "type": "address"
        }
      ],
      "stateMutability": "view",
      "type": "function"
    },
    {
      "inputs": [
        {
          "internalType": "uint256",
          "name": "requestId",
          "type": "uint256"
        },
        {
          "internalType": "uint256[]",
          "name": "randomWords",
          "type": "uint256[]"
        }
      ],
      "name": "rawFulfillRandomWords",
      "outputs": [],
      "stateMutability": "nonpayable",
      "type": "function"
    },
    {
      "inputs": [],
      "name": "requestDoggie",
      "outputs": [
        {
          "internalType": "uint256",
          "name": "requestId",
          "type": "uint256"
        }
      ],
      "stateMutability": "nonpayable",
      "type": "function"
    },
    {
      "inputs": [
        {
          "internalType": "uint256",
          "name": "",
          "type": "uint256"
        }
      ],
      "name": "s_dogTokenUris",
      "outputs": [
        {
          "internalType": "string",
          "name": "",
          "type": "string"
        }
      ],
      "stateMutability": "view",
      "type": "function"
    },
    {
      "inputs": [
        {
          "internalType": "uint256",
          "name": "",
          "type": "uint256"
        }
      ],
      "name": "s_requestIdToSender",
      "outputs": [
        {
          "internalType": "address",
          "name": "",
          "type": "address"
        }
      ],
      "stateMutability": "view",
      "type": "function"
    },
    {
      "inputs": [],
      "name": "s_tokenCounter",
      "outputs": [
        {
          "internalType": "uint256",
          "name": "",
          "type": "uint256"
        }
      ],
      "stateMutability": "view",
      "type": "function"
    },
    {
      "inputs": [
        {
          "internalType": "address",
          "name": "from",
          "type": "address"
        },
        {
          "internalType": "address",
          "name": "to",
          "type": "address"
        },
        {
          "internalType": "uint256",
          "name": "tokenId",
          "type": "uint256"
        }
      ],
      "name": "safeTransferFrom",
      "outputs": [],
      "stateMutability": "nonpayable",
      "type": "function"
    },
    {
      "inputs": [
        {
          "internalType": "address",
          "name": "from",
          "type": "address"
        },
        {
          "internalType": "address",
          "name": "to",
          "type": "address"
        },
        {
          "internalType": "uint256",
          "name": "tokenId",
          "type": "uint256"
        },
        {
          "internalType": "bytes",
          "name": "data",
          "type": "bytes"
        }
      ],
      "name": "safeTransferFrom",
      "outputs": [],
      "stateMutability": "nonpayable",
      "type": "function"
    },
    {
      "inputs": [
        {
          "internalType": "address",
          "name": "operator",
          "type": "address"
        },
        {
          "internalType": "bool",
          "name": "approved",
          "type": "bool"
        }
      ],
      "name": "setApprovalForAll",
      "outputs": [],
      "stateMutability": "nonpayable",
      "type": "function"
    },
    {
      "inputs": [
        {
          "internalType": "bytes4",
          "name": "interfaceId",
          "type": "bytes4"
        }
      ],
      "name": "supportsInterface",
      "outputs": [
        {
          "internalType": "bool",
          "name": "",
          "type": "bool"
        }
      ],
      "stateMutability": "view",
      "type": "function"
    },
    {
      "inputs": [],
      "name": "symbol",
      "outputs": [
        {
          "internalType": "string",
          "name": "",
          "type": "string"
        }
      ],
      "stateMutability": "view",
      "type": "function"
    },
    {
      "inputs": [
        {
          "internalType": "uint256",
          "name": "tokenId",
          "type": "uint256"
        }
      ],
      "name": "tokenURI",
      "outputs": [
        {
          "internalType": "string",
          "name": "",
          "type": "string"
        }
      ],
      "stateMutability": "view",
      "type": "function"
    },
    {
      "inputs": [
        {
          "internalType": "address",
          "name": "from",
          "type": "address"
        },
        {
          "internalType": "address",
          "name": "to",
          "type": "address"
        },
        {
          "internalType": "uint256",
          "name": "tokenId",
          "type": "uint256"
        }
      ],
      "name": "transferFrom",
      "outputs": [],
      "stateMutability": "nonpayable",
      "type": "function"
    }
  ],
  "transactionHash": "0x21b390a706d2643481590f22be322c91852b2f64d91685d4e37e374fc803221c",
  "args": [
    "0x6168499c0cFfCaCD319c818142124B7A15E857ab",
    "0xd89b2bf150e3b9e13446986e571fb9cab24b13cea0a43ea20a6049a85cc807cc",
    "8898",
    "500000",
    [
      "ipfs://QmaVkBn2tKmjbhphU7eyztbvSQU5EXDdqRyXZtRhSGgJGo",
      "ipfs://QmZYmH5iDbD6v3U2ixoVAjioSzvWJszDzYdbeCLquGSpVm",
      "ipfs://QmYQC5aGZu2PTH8XzbJrbDnvhj3gVs7ya33H9mqUNvST3d"
    ]
  ],
  "numDeployments": 1,
  "solcInputHash": "8a269968bc8c5c85039767e29ba68a87",
  "bytecode": "0x6101206040523480156200001257600080fd5b5060405162003b9538038062003b958339818101604052810190620000389190620004c3565b846040518060400160405280600f81526020017f52616e646f6d2049504653204e465400000000000000000000000000000000008152506040518060400160405280600381526020017f52494e00000000000000000000000000000000000000000000000000000000008152508160009080519060200190620000bd929190620001ae565b508060019080519060200190620000d6929190620001ae565b5050508073ffffffffffffffffffffffffffffffffffffffff1660808173ffffffffffffffffffffffffffffffffffffffff1660601b81525050508473ffffffffffffffffffffffffffffffffffffffff1660a08173ffffffffffffffffffffffffffffffffffffffff1660601b815250508360c081815250508267ffffffffffffffff1660e08167ffffffffffffffff1660c01b815250508163ffffffff166101008163ffffffff1660e01b815250506000600b81905550806008906003620001a29291906200023f565b505050505050620007e6565b828054620001bc906200068a565b90600052602060002090601f016020900481019282620001e057600085556200022c565b82601f10620001fb57805160ff19168380011785556200022c565b828001600101855582156200022c579182015b828111156200022b5782518255916020019190600101906200020e565b5b5090506200023b919062000299565b5090565b826003810192821562000286579160200282015b828111156200028557825182908051906020019062000274929190620001ae565b509160200191906001019062000253565b5b509050620002959190620002b8565b5090565b5b80821115620002b45760008160009055506001016200029a565b5090565b5b80821115620002dc5760008181620002d29190620002e0565b50600101620002b9565b5090565b508054620002ee906200068a565b6000825580601f1062000302575062000323565b601f01602090049060005260206000209081019062000322919062000299565b5b50565b60006200033d620003378462000593565b6200056a565b905080828560208602820111156200035a576200035962000759565b5b60005b85811015620003af57815167ffffffffffffffff81111562000384576200038362000754565b5b80860162000393898262000462565b855260208501945060208401935050506001810190506200035d565b5050509392505050565b6000620003d0620003ca84620005bc565b6200056a565b905082815260208101848484011115620003ef57620003ee6200075e565b5b620003fc84828562000654565b509392505050565b60008151905062000415816200077e565b92915050565b600082601f83011262000433576200043262000754565b5b60036200044284828562000326565b91505092915050565b6000815190506200045c8162000798565b92915050565b600082601f8301126200047a576200047962000754565b5b81516200048c848260208601620003b9565b91505092915050565b600081519050620004a681620007b2565b92915050565b600081519050620004bd81620007cc565b92915050565b600080600080600060a08688031215620004e257620004e162000768565b5b6000620004f28882890162000404565b955050602062000505888289016200044b565b94505060406200051888828901620004ac565b93505060606200052b8882890162000495565b925050608086015167ffffffffffffffff8111156200054f576200054e62000763565b5b6200055d888289016200041b565b9150509295509295909350565b60006200057662000589565b9050620005848282620006c0565b919050565b6000604051905090565b600067ffffffffffffffff821115620005b157620005b062000725565b5b602082029050919050565b600067ffffffffffffffff821115620005da57620005d962000725565b5b620005e5826200076d565b9050602081019050919050565b6000620005ff8262000610565b9050919050565b6000819050919050565b600073ffffffffffffffffffffffffffffffffffffffff82169050919050565b600063ffffffff82169050919050565b600067ffffffffffffffff82169050919050565b60005b838110156200067457808201518184015260208101905062000657565b8381111562000684576000848401525b50505050565b60006002820490506001821680620006a357607f821691505b60208210811415620006ba57620006b9620006f6565b5b50919050565b620006cb826200076d565b810181811067ffffffffffffffff82111715620006ed57620006ec62000725565b5b80604052505050565b7f4e487b7100000000000000000000000000000000000000000000000000000000600052602260045260246000fd5b7f4e487b7100000000000000000000000000000000000000000000000000000000600052604160045260246000fd5b600080fd5b600080fd5b600080fd5b600080fd5b600080fd5b6000601f19601f8301169050919050565b6200078981620005f2565b81146200079557600080fd5b50565b620007a38162000606565b8114620007af57600080fd5b50565b620007bd8162000630565b8114620007c957600080fd5b50565b620007d78162000640565b8114620007e357600080fd5b50565b60805160601c60a05160601c60c05160e05160c01c6101005160e01c6133426200085360003960008181610891015261103801526000818161086e0152610abd01526000818161084d0152610c800152600061081101526000818161097d01526109d101526133426000f3fe608060405234801561001057600080fd5b506004361061018e5760003560e01c806370a08231116100de578063a51cccf311610097578063c87b56dd11610071578063c87b56dd14610499578063d757d027146104c9578063da1b9e29146104e7578063e985e9c5146105055761018e565b8063a51cccf31461041d578063b88d4fde1461044d578063c42b65e2146104695761018e565b806370a082311461034757806372cf6e34146103775780638e879c8a1461039557806395d89b41146103b3578063a22cb465146103d1578063a36f573b146103ed5761018e565b80631fe543e31161014b578063470cdf9711610125578063470cdf97146102bd5780635dacf5f4146102db5780636352211e146102f957806367f082b0146103295761018e565b80631fe543e31461026957806323b872dd1461028557806342842e0e146102a15761018e565b806301ffc9a71461019357806306fdde03146101c3578063081812fc146101e1578063095ea7b3146102115780630b21a83b1461022d5780631801cc8a1461024b575b600080fd5b6101ad60048036038101906101a8919061235f565b610535565b6040516101ba919061286c565b60405180910390f35b6101cb610617565b6040516101d891906128f5565b60405180910390f35b6101fb60048036038101906101f691906123b9565b6106a9565b60405161020891906127c1565b60405180910390f35b61022b6004803603810190610226919061231f565b6106ef565b005b610235610807565b6040516102429190612ab2565b60405180910390f35b61025361080d565b6040516102609190612ab2565b60405180910390f35b610283600480360381019061027e9190612413565b61097b565b005b61029f600480360381019061029a9190612209565b610a3b565b005b6102bb60048036038101906102b69190612209565b610a9b565b005b6102c5610abb565b6040516102d29190612ae8565b60405180910390f35b6102e3610adf565b6040516102f09190612851565b60405180910390f35b610313600480360381019061030e91906123b9565b610b0a565b60405161032091906127c1565b60405180910390f35b610331610bbc565b60405161033e9190612a97565b60405180910390f35b610361600480360381019061035c919061219c565b610bc1565b60405161036e9190612ab2565b60405180910390f35b61037f610c79565b60405161038c9190612acd565b60405180910390f35b61039d610c7e565b6040516103aa9190612887565b60405180910390f35b6103bb610ca2565b6040516103c891906128f5565b60405180910390f35b6103eb60048036038101906103e691906122df565b610d34565b005b610407600480360381019061040291906123b9565b610d4a565b60405161041491906127c1565b60405180910390f35b610437600480360381019061043291906123b9565b610d7d565b6040516104449190612ab2565b60405180910390f35b6104676004803603810190610462919061225c565b610e1e565b005b610483600480360381019061047e91906123b9565b610e80565b60405161049091906128f5565b60405180910390f35b6104b360048036038101906104ae91906123b9565b610f23565b6040516104c091906128f5565b60405180910390f35b6104d1611036565b6040516104de9190612acd565b60405180910390f35b6104ef61105a565b6040516104fc9190612ab2565b60405180910390f35b61051f600480360381019061051a91906121c9565b61105f565b60405161052c919061286c565b60405180910390f35b60007f80ac58cd000000000000000000000000000000000000000000000000000000007bffffffffffffffffffffffffffffffffffffffffffffffffffffffff1916827bffffffffffffffffffffffffffffffffffffffffffffffffffffffff1916148061060057507f5b5e139f000000000000000000000000000000000000000000000000000000007bffffffffffffffffffffffffffffffffffffffffffffffffffffffff1916827bffffffffffffffffffffffffffffffffffffffffffffffffffffffff1916145b80610610575061060f826110f3565b5b9050919050565b60606000805461062690612da2565b80601f016020809104026020016040519081016040528092919081815260200182805461065290612da2565b801561069f5780601f106106745761010080835404028352916020019161069f565b820191906000526020600020905b81548152906001019060200180831161068257829003601f168201915b5050505050905090565b60006106b48261115d565b6004600083815260200190815260200160002060009054906101000a900473ffffffffffffffffffffffffffffffffffffffff169050919050565b60006106fa82610b0a565b90508073ffffffffffffffffffffffffffffffffffffffff168373ffffffffffffffffffffffffffffffffffffffff16141561076b576040517f08c379a000000000000000000000000000000000000000000000000000000000815260040161076290612a57565b60405180910390fd5b8073ffffffffffffffffffffffffffffffffffffffff1661078a6111a8565b73ffffffffffffffffffffffffffffffffffffffff1614806107b957506107b8816107b36111a8565b61105f565b5b6107f8576040517f08c379a00000000000000000000000000000000000000000000000000000000081526004016107ef906129f7565b60405180910390fd5b61080283836111b0565b505050565b600b5481565b60007f000000000000000000000000000000000000000000000000000000000000000073ffffffffffffffffffffffffffffffffffffffff16635d3b1d307f00000000000000000000000000000000000000000000000000000000000000007f000000000000000000000000000000000000000000000000000000000000000060037f000000000000000000000000000000000000000000000000000000000000000060016040518663ffffffff1660e01b81526004016108d29594939291906128a2565b602060405180830381600087803b1580156108ec57600080fd5b505af1158015610900573d6000803e3d6000fd5b505050506040513d601f19601f8201168201806040525081019061092491906123e6565b9050336007600083815260200190815260200160002060006101000a81548173ffffffffffffffffffffffffffffffffffffffff021916908373ffffffffffffffffffffffffffffffffffffffff16021790555090565b7f000000000000000000000000000000000000000000000000000000000000000073ffffffffffffffffffffffffffffffffffffffff163373ffffffffffffffffffffffffffffffffffffffff1614610a2d57337f00000000000000000000000000000000000000000000000000000000000000006040517f1cf993f4000000000000000000000000000000000000000000000000000000008152600401610a249291906127dc565b60405180910390fd5b610a378282611269565b5050565b610a4c610a466111a8565b826113af565b610a8b576040517f08c379a0000000000000000000000000000000000000000000000000000000008152600401610a8290612a77565b60405180910390fd5b610a96838383611444565b505050565b610ab683838360405180602001604052806000815250610e1e565b505050565b7f000000000000000000000000000000000000000000000000000000000000000081565b610ae7611f4b565b6040518060600160405280600a8152602001601e81526020016064815250905090565b6000806002600084815260200190815260200160002060009054906101000a900473ffffffffffffffffffffffffffffffffffffffff169050600073ffffffffffffffffffffffffffffffffffffffff168173ffffffffffffffffffffffffffffffffffffffff161415610bb3576040517f08c379a0000000000000000000000000000000000000000000000000000000008152600401610baa90612a37565b60405180910390fd5b80915050919050565b600381565b60008073ffffffffffffffffffffffffffffffffffffffff168273ffffffffffffffffffffffffffffffffffffffff161415610c32576040517f08c379a0000000000000000000000000000000000000000000000000000000008152600401610c29906129b7565b60405180910390fd5b600360008373ffffffffffffffffffffffffffffffffffffffff1673ffffffffffffffffffffffffffffffffffffffff168152602001908152602001600020549050919050565b600181565b7f000000000000000000000000000000000000000000000000000000000000000081565b606060018054610cb190612da2565b80601f0160208091040260200160405190810160405280929190818152602001828054610cdd90612da2565b8015610d2a5780601f10610cff57610100808354040283529160200191610d2a565b820191906000526020600020905b815481529060010190602001808311610d0d57829003601f168201915b5050505050905090565b610d46610d3f6111a8565b83836116ab565b5050565b60076020528060005260406000206000915054906101000a900473ffffffffffffffffffffffffffffffffffffffff1681565b600080600090506000610d8e610adf565b905060005b6003811015610e1557828510158015610dcd5750818160038110610dba57610db9612f0c565b5b602002015183610dca9190612bf5565b85105b15610ddd57809350505050610e19565b818160038110610df057610def612f0c565b5b602002015183610e009190612bf5565b92508080610e0d90612e05565b915050610d93565b5050505b919050565b610e2f610e296111a8565b836113af565b610e6e576040517f08c379a0000000000000000000000000000000000000000000000000000000008152600401610e6590612a77565b60405180910390fd5b610e7a84848484611818565b50505050565b60088160038110610e9057600080fd5b016000915090508054610ea290612da2565b80601f0160208091040260200160405190810160405280929190818152602001828054610ece90612da2565b8015610f1b5780601f10610ef057610100808354040283529160200191610f1b565b820191906000526020600020905b815481529060010190602001808311610efe57829003601f168201915b505050505081565b6060610f2e8261115d565b6000600660008481526020019081526020016000208054610f4e90612da2565b80601f0160208091040260200160405190810160405280929190818152602001828054610f7a90612da2565b8015610fc75780601f10610f9c57610100808354040283529160200191610fc7565b820191906000526020600020905b815481529060010190602001808311610faa57829003601f168201915b505050505090506000610fd8611874565b9050600081511415610fee578192505050611031565b60008251111561102357808260405160200161100b92919061279d565b60405160208183030381529060405292505050611031565b61102c8461188b565b925050505b919050565b7f000000000000000000000000000000000000000000000000000000000000000081565b606481565b6000600560008473ffffffffffffffffffffffffffffffffffffffff1673ffffffffffffffffffffffffffffffffffffffff16815260200190815260200160002060008373ffffffffffffffffffffffffffffffffffffffff1673ffffffffffffffffffffffffffffffffffffffff16815260200190815260200160002060009054906101000a900460ff16905092915050565b60007f01ffc9a7000000000000000000000000000000000000000000000000000000007bffffffffffffffffffffffffffffffffffffffffffffffffffffffff1916827bffffffffffffffffffffffffffffffffffffffffffffffffffffffff1916149050919050565b611166816118f3565b6111a5576040517f08c379a000000000000000000000000000000000000000000000000000000000815260040161119c90612a37565b60405180910390fd5b50565b600033905090565b816004600083815260200190815260200160002060006101000a81548173ffffffffffffffffffffffffffffffffffffffff021916908373ffffffffffffffffffffffffffffffffffffffff160217905550808273ffffffffffffffffffffffffffffffffffffffff1661122383610b0a565b73ffffffffffffffffffffffffffffffffffffffff167f8c5be1e5ebec7d5bd14f71427d1e84f3dd0314c0f7b2291e5b200ac8c7c3b92560405160405180910390a45050565b60006007600084815260200190815260200160002060009054906101000a900473ffffffffffffffffffffffffffffffffffffffff1690506000600b5490506001600b546112b79190612bf5565b600b8190555060006064846000815181106112d5576112d4612f0c565b5b60200260200101516112e79190612e4e565b905060006112f482610d7d565b9050611300848461195f565b6113a7836008836003811061131857611317612f0c565b5b01805461132490612da2565b80601f016020809104026020016040519081016040528092919081815260200182805461135090612da2565b801561139d5780601f106113725761010080835404028352916020019161139d565b820191906000526020600020905b81548152906001019060200180831161138057829003601f168201915b505050505061197d565b505050505050565b6000806113bb83610b0a565b90508073ffffffffffffffffffffffffffffffffffffffff168473ffffffffffffffffffffffffffffffffffffffff1614806113fd57506113fc818561105f565b5b8061143b57508373ffffffffffffffffffffffffffffffffffffffff16611423846106a9565b73ffffffffffffffffffffffffffffffffffffffff16145b91505092915050565b8273ffffffffffffffffffffffffffffffffffffffff1661146482610b0a565b73ffffffffffffffffffffffffffffffffffffffff16146114ba576040517f08c379a00000000000000000000000000000000000000000000000000000000081526004016114b190612937565b60405180910390fd5b600073ffffffffffffffffffffffffffffffffffffffff168273ffffffffffffffffffffffffffffffffffffffff16141561152a576040517f08c379a000000000000000000000000000000000000000000000000000000000815260040161152190612977565b60405180910390fd5b6115358383836119f1565b6115406000826111b0565b6001600360008573ffffffffffffffffffffffffffffffffffffffff1673ffffffffffffffffffffffffffffffffffffffff16815260200190815260200160002060008282546115909190612c7c565b925050819055506001600360008473ffffffffffffffffffffffffffffffffffffffff1673ffffffffffffffffffffffffffffffffffffffff16815260200190815260200160002060008282546115e79190612bf5565b92505081905550816002600083815260200190815260200160002060006101000a81548173ffffffffffffffffffffffffffffffffffffffff021916908373ffffffffffffffffffffffffffffffffffffffff160217905550808273ffffffffffffffffffffffffffffffffffffffff168473ffffffffffffffffffffffffffffffffffffffff167fddf252ad1be2c89b69c2b068fc378daa952ba7f163c4a11628f55a4df523b3ef60405160405180910390a46116a68383836119f6565b505050565b8173ffffffffffffffffffffffffffffffffffffffff168373ffffffffffffffffffffffffffffffffffffffff16141561171a576040517f08c379a000000000000000000000000000000000000000000000000000000000815260040161171190612997565b60405180910390fd5b80600560008573ffffffffffffffffffffffffffffffffffffffff1673ffffffffffffffffffffffffffffffffffffffff16815260200190815260200160002060008473ffffffffffffffffffffffffffffffffffffffff1673ffffffffffffffffffffffffffffffffffffffff16815260200190815260200160002060006101000a81548160ff0219169083151502179055508173ffffffffffffffffffffffffffffffffffffffff168373ffffffffffffffffffffffffffffffffffffffff167f17307eab39ab6107e8899845ad3d59bd9653f200f220920489ca2b5937696c318360405161180b919061286c565b60405180910390a3505050565b611823848484611444565b61182f848484846119fb565b61186e576040517f08c379a000000000000000000000000000000000000000000000000000000000815260040161186590612917565b60405180910390fd5b50505050565b606060405180602001604052806000815250905090565b60606118968261115d565b60006118a0611874565b905060008151116118c057604051806020016040528060008152506118eb565b806118ca84611b92565b6040516020016118db92919061279d565b6040516020818303038152906040525b915050919050565b60008073ffffffffffffffffffffffffffffffffffffffff166002600084815260200190815260200160002060009054906101000a900473ffffffffffffffffffffffffffffffffffffffff1673ffffffffffffffffffffffffffffffffffffffff1614159050919050565b611979828260405180602001604052806000815250611cf3565b5050565b611986826118f3565b6119c5576040517f08c379a00000000000000000000000000000000000000000000000000000000081526004016119bc906129d7565b60405180910390fd5b806006600084815260200190815260200160002090805190602001906119ec929190611f6d565b505050565b505050565b505050565b6000611a1c8473ffffffffffffffffffffffffffffffffffffffff16611d4e565b15611b85578373ffffffffffffffffffffffffffffffffffffffff1663150b7a02611a456111a8565b8786866040518563ffffffff1660e01b8152600401611a679493929190612805565b602060405180830381600087803b158015611a8157600080fd5b505af1925050508015611ab257506040513d601f19601f82011682018060405250810190611aaf919061238c565b60015b611b35573d8060008114611ae2576040519150601f19603f3d011682016040523d82523d6000602084013e611ae7565b606091505b50600081511415611b2d576040517f08c379a0000000000000000000000000000000000000000000000000000000008152600401611b2490612917565b60405180910390fd5b805181602001fd5b63150b7a0260e01b7bffffffffffffffffffffffffffffffffffffffffffffffffffffffff1916817bffffffffffffffffffffffffffffffffffffffffffffffffffffffff191614915050611b8a565b600190505b949350505050565b60606000821415611bda576040518060400160405280600181526020017f30000000000000000000000000000000000000000000000000000000000000008152509050611cee565b600082905060005b60008214611c0c578080611bf590612e05565b915050600a82611c059190612c4b565b9150611be2565b60008167ffffffffffffffff811115611c2857611c27612f3b565b5b6040519080825280601f01601f191660200182016040528015611c5a5781602001600182028036833780820191505090505b5090505b60008514611ce757600182611c739190612c7c565b9150600a85611c829190612e4e565b6030611c8e9190612bf5565b60f81b818381518110611ca457611ca3612f0c565b5b60200101907effffffffffffffffffffffffffffffffffffffffffffffffffffffffffffff1916908160001a905350600a85611ce09190612c4b565b9450611c5e565b8093505050505b919050565b611cfd8383611d71565b611d0a60008484846119fb565b611d49576040517f08c379a0000000000000000000000000000000000000000000000000000000008152600401611d4090612917565b60405180910390fd5b505050565b6000808273ffffffffffffffffffffffffffffffffffffffff163b119050919050565b600073ffffffffffffffffffffffffffffffffffffffff168273ffffffffffffffffffffffffffffffffffffffff161415611de1576040517f08c379a0000000000000000000000000000000000000000000000000000000008152600401611dd890612a17565b60405180910390fd5b611dea816118f3565b15611e2a576040517f08c379a0000000000000000000000000000000000000000000000000000000008152600401611e2190612957565b60405180910390fd5b611e36600083836119f1565b6001600360008473ffffffffffffffffffffffffffffffffffffffff1673ffffffffffffffffffffffffffffffffffffffff1681526020019081526020016000206000828254611e869190612bf5565b92505081905550816002600083815260200190815260200160002060006101000a81548173ffffffffffffffffffffffffffffffffffffffff021916908373ffffffffffffffffffffffffffffffffffffffff160217905550808273ffffffffffffffffffffffffffffffffffffffff16600073ffffffffffffffffffffffffffffffffffffffff167fddf252ad1be2c89b69c2b068fc378daa952ba7f163c4a11628f55a4df523b3ef60405160405180910390a4611f47600083836119f6565b5050565b6040518060600160405280600390602082028036833780820191505090505090565b828054611f7990612da2565b90600052602060002090601f016020900481019282611f9b5760008555611fe2565b82601f10611fb457805160ff1916838001178555611fe2565b82800160010185558215611fe2579182015b82811115611fe1578251825591602001919060010190611fc6565b5b509050611fef9190611ff3565b5090565b5b8082111561200c576000816000905550600101611ff4565b5090565b600061202361201e84612b28565b612b03565b9050808382526020820190508285602086028201111561204657612045612f6f565b5b60005b85811015612076578161205c8882612172565b845260208401935060208301925050600181019050612049565b5050509392505050565b600061209361208e84612b54565b612b03565b9050828152602081018484840111156120af576120ae612f74565b5b6120ba848285612d60565b509392505050565b6000813590506120d1816132b0565b92915050565b600082601f8301126120ec576120eb612f6a565b5b81356120fc848260208601612010565b91505092915050565b600081359050612114816132c7565b92915050565b600081359050612129816132de565b92915050565b60008151905061213e816132de565b92915050565b600082601f83011261215957612158612f6a565b5b8135612169848260208601612080565b91505092915050565b600081359050612181816132f5565b92915050565b600081519050612196816132f5565b92915050565b6000602082840312156121b2576121b1612f7e565b5b60006121c0848285016120c2565b91505092915050565b600080604083850312156121e0576121df612f7e565b5b60006121ee858286016120c2565b92505060206121ff858286016120c2565b9150509250929050565b60008060006060848603121561222257612221612f7e565b5b6000612230868287016120c2565b9350506020612241868287016120c2565b925050604061225286828701612172565b9150509250925092565b6000806000806080858703121561227657612275612f7e565b5b6000612284878288016120c2565b9450506020612295878288016120c2565b93505060406122a687828801612172565b925050606085013567ffffffffffffffff8111156122c7576122c6612f79565b5b6122d387828801612144565b91505092959194509250565b600080604083850312156122f6576122f5612f7e565b5b6000612304858286016120c2565b925050602061231585828601612105565b9150509250929050565b6000806040838503121561233657612335612f7e565b5b6000612344858286016120c2565b925050602061235585828601612172565b9150509250929050565b60006020828403121561237557612374612f7e565b5b60006123838482850161211a565b91505092915050565b6000602082840312156123a2576123a1612f7e565b5b60006123b08482850161212f565b91505092915050565b6000602082840312156123cf576123ce612f7e565b5b60006123dd84828501612172565b91505092915050565b6000602082840312156123fc576123fb612f7e565b5b600061240a84828501612187565b91505092915050565b6000806040838503121561242a57612429612f7e565b5b600061243885828601612172565b925050602083013567ffffffffffffffff81111561245957612458612f79565b5b612465858286016120d7565b9150509250929050565b600061247b8383612761565b60208301905092915050565b61249081612cb0565b82525050565b61249f81612b8f565b6124a98184612bbd565b92506124b482612b85565b8060005b838110156124e55781516124cc878261246f565b96506124d783612bb0565b9250506001810190506124b8565b505050505050565b6124f681612cc2565b82525050565b61250581612cce565b82525050565b600061251682612b9a565b6125208185612bc8565b9350612530818560208601612d6f565b61253981612f83565b840191505092915050565b600061254f82612ba5565b6125598185612bd9565b9350612569818560208601612d6f565b61257281612f83565b840191505092915050565b600061258882612ba5565b6125928185612bea565b93506125a2818560208601612d6f565b80840191505092915050565b60006125bb603283612bd9565b91506125c682612f94565b604082019050919050565b60006125de602583612bd9565b91506125e982612fe3565b604082019050919050565b6000612601601c83612bd9565b915061260c82613032565b602082019050919050565b6000612624602483612bd9565b915061262f8261305b565b604082019050919050565b6000612647601983612bd9565b9150612652826130aa565b602082019050919050565b600061266a602983612bd9565b9150612675826130d3565b604082019050919050565b600061268d602e83612bd9565b915061269882613122565b604082019050919050565b60006126b0603e83612bd9565b91506126bb82613171565b604082019050919050565b60006126d3602083612bd9565b91506126de826131c0565b602082019050919050565b60006126f6601883612bd9565b9150612701826131e9565b602082019050919050565b6000612719602183612bd9565b915061272482613212565b604082019050919050565b600061273c602e83612bd9565b915061274782613261565b604082019050919050565b61275b81612d04565b82525050565b61276a81612d32565b82525050565b61277981612d32565b82525050565b61278881612d3c565b82525050565b61279781612d4c565b82525050565b60006127a9828561257d565b91506127b5828461257d565b91508190509392505050565b60006020820190506127d66000830184612487565b92915050565b60006040820190506127f16000830185612487565b6127fe6020830184612487565b9392505050565b600060808201905061281a6000830187612487565b6128276020830186612487565b6128346040830185612770565b8181036060830152612846818461250b565b905095945050505050565b60006060820190506128666000830184612496565b92915050565b600060208201905061288160008301846124ed565b92915050565b600060208201905061289c60008301846124fc565b92915050565b600060a0820190506128b760008301886124fc565b6128c4602083018761278e565b6128d16040830186612752565b6128de606083018561277f565b6128eb608083018461277f565b9695505050505050565b6000602082019050818103600083015261290f8184612544565b905092915050565b60006020820190508181036000830152612930816125ae565b9050919050565b60006020820190508181036000830152612950816125d1565b9050919050565b60006020820190508181036000830152612970816125f4565b9050919050565b6000602082019050818103600083015261299081612617565b9050919050565b600060208201905081810360008301526129b08161263a565b9050919050565b600060208201905081810360008301526129d08161265d565b9050919050565b600060208201905081810360008301526129f081612680565b9050919050565b60006020820190508181036000830152612a10816126a3565b9050919050565b60006020820190508181036000830152612a30816126c6565b9050919050565b60006020820190508181036000830152612a50816126e9565b9050919050565b60006020820190508181036000830152612a708161270c565b9050919050565b60006020820190508181036000830152612a908161272f565b9050919050565b6000602082019050612aac6000830184612752565b92915050565b6000602082019050612ac76000830184612770565b92915050565b6000602082019050612ae2600083018461277f565b92915050565b6000602082019050612afd600083018461278e565b92915050565b6000612b0d612b1e565b9050612b198282612dd4565b919050565b6000604051905090565b600067ffffffffffffffff821115612b4357612b42612f3b565b5b602082029050602081019050919050565b600067ffffffffffffffff821115612b6f57612b6e612f3b565b5b612b7882612f83565b9050602081019050919050565b6000819050919050565b600060039050919050565b600081519050919050565b600081519050919050565b6000602082019050919050565b600081905092915050565b600082825260208201905092915050565b600082825260208201905092915050565b600081905092915050565b6000612c0082612d32565b9150612c0b83612d32565b9250827fffffffffffffffffffffffffffffffffffffffffffffffffffffffffffffffff03821115612c4057612c3f612e7f565b5b828201905092915050565b6000612c5682612d32565b9150612c6183612d32565b925082612c7157612c70612eae565b5b828204905092915050565b6000612c8782612d32565b9150612c9283612d32565b925082821015612ca557612ca4612e7f565b5b828203905092915050565b6000612cbb82612d12565b9050919050565b60008115159050919050565b6000819050919050565b60007fffffffff0000000000000000000000000000000000000000000000000000000082169050919050565b600061ffff82169050919050565b600073ffffffffffffffffffffffffffffffffffffffff82169050919050565b6000819050919050565b600063ffffffff82169050919050565b600067ffffffffffffffff82169050919050565b82818337600083830152505050565b60005b83811015612d8d578082015181840152602081019050612d72565b83811115612d9c576000848401525b50505050565b60006002820490506001821680612dba57607f821691505b60208210811415612dce57612dcd612edd565b5b50919050565b612ddd82612f83565b810181811067ffffffffffffffff82111715612dfc57612dfb612f3b565b5b80604052505050565b6000612e1082612d32565b91507fffffffffffffffffffffffffffffffffffffffffffffffffffffffffffffffff821415612e4357612e42612e7f565b5b600182019050919050565b6000612e5982612d32565b9150612e6483612d32565b925082612e7457612e73612eae565b5b828206905092915050565b7f4e487b7100000000000000000000000000000000000000000000000000000000600052601160045260246000fd5b7f4e487b7100000000000000000000000000000000000000000000000000000000600052601260045260246000fd5b7f4e487b7100000000000000000000000000000000000000000000000000000000600052602260045260246000fd5b7f4e487b7100000000000000000000000000000000000000000000000000000000600052603260045260246000fd5b7f4e487b7100000000000000000000000000000000000000000000000000000000600052604160045260246000fd5b600080fd5b600080fd5b600080fd5b600080fd5b600080fd5b6000601f19601f8301169050919050565b7f4552433732313a207472616e7366657220746f206e6f6e20455243373231526560008201527f63656976657220696d706c656d656e7465720000000000000000000000000000602082015250565b7f4552433732313a207472616e736665722066726f6d20696e636f72726563742060008201527f6f776e6572000000000000000000000000000000000000000000000000000000602082015250565b7f4552433732313a20746f6b656e20616c7265616479206d696e74656400000000600082015250565b7f4552433732313a207472616e7366657220746f20746865207a65726f2061646460008201527f7265737300000000000000000000000000000000000000000000000000000000602082015250565b7f4552433732313a20617070726f766520746f2063616c6c657200000000000000600082015250565b7f4552433732313a2061646472657373207a65726f206973206e6f74206120766160008201527f6c6964206f776e65720000000000000000000000000000000000000000000000602082015250565b7f45524337323155524953746f726167653a2055524920736574206f66206e6f6e60008201527f6578697374656e7420746f6b656e000000000000000000000000000000000000602082015250565b7f4552433732313a20617070726f76652063616c6c6572206973206e6f7420746f60008201527f6b656e206f776e6572206e6f7220617070726f76656420666f7220616c6c0000602082015250565b7f4552433732313a206d696e7420746f20746865207a65726f2061646472657373600082015250565b7f4552433732313a20696e76616c696420746f6b656e2049440000000000000000600082015250565b7f4552433732313a20617070726f76616c20746f2063757272656e74206f776e6560008201527f7200000000000000000000000000000000000000000000000000000000000000602082015250565b7f4552433732313a2063616c6c6572206973206e6f7420746f6b656e206f776e6560008201527f72206e6f7220617070726f766564000000000000000000000000000000000000602082015250565b6132b981612cb0565b81146132c457600080fd5b50565b6132d081612cc2565b81146132db57600080fd5b50565b6132e781612cd8565b81146132f257600080fd5b50565b6132fe81612d32565b811461330957600080fd5b5056fea264697066735822122005295d48bb061f5e071e59fd112df9e4afa8f95e157b2e0ff812e0511357bbbe64736f6c63430008070033",
  "devdoc": {
    "kind": "dev",
    "methods": {
      "approve(address,uint256)": {
        "details": "See {IERC721-approve}."
      },
      "balanceOf(address)": {
        "details": "See {IERC721-balanceOf}."
      },
      "getApproved(uint256)": {
        "details": "See {IERC721-getApproved}."
      },
      "isApprovedForAll(address,address)": {
        "details": "See {IERC721-isApprovedForAll}."
      },
      "name()": {
        "details": "See {IERC721Metadata-name}."
      },
      "ownerOf(uint256)": {
        "details": "See {IERC721-ownerOf}."
      },
      "safeTransferFrom(address,address,uint256)": {
        "details": "See {IERC721-safeTransferFrom}."
      },
      "safeTransferFrom(address,address,uint256,bytes)": {
        "details": "See {IERC721-safeTransferFrom}."
      },
      "setApprovalForAll(address,bool)": {
        "details": "See {IERC721-setApprovalForAll}."
      },
      "supportsInterface(bytes4)": {
        "details": "See {IERC165-supportsInterface}."
      },
      "symbol()": {
        "details": "See {IERC721Metadata-symbol}."
      },
      "tokenURI(uint256)": {
        "details": "See {IERC721Metadata-tokenURI}."
      },
      "transferFrom(address,address,uint256)": {
        "details": "See {IERC721-transferFrom}."
      }
    },
    "version": 1
  },
  "userdoc": {
    "kind": "user",
    "methods": {},
    "version": 1
  },
  "storageLayout": {
    "storage": [
      {
        "astId": 172,
        "contract": "contracts/RandomIpfsNft.sol:RandomIpfsNft",
        "label": "_name",
        "offset": 0,
        "slot": "0",
        "type": "t_string_storage"
      },
      {
        "astId": 174,
        "contract": "contracts/RandomIpfsNft.sol:RandomIpfsNft",
        "label": "_symbol",
        "offset": 0,
        "slot": "1",
        "type": "t_string_storage"
      },
      {
        "astId": 178,
        "contract": "contracts/RandomIpfsNft.sol:RandomIpfsNft",
        "label": "_owners",
        "offset": 0,
        "slot": "2",
        "type": "t_mapping(t_uint256,t_address)"
      },
      {
        "astId": 182,
        "contract": "contracts/RandomIpfsNft.sol:RandomIpfsNft",
        "label": "_balances",
        "offset": 0,
        "slot": "3",
        "type": "t_mapping(t_address,t_uint256)"
      },
      {
        "astId": 186,
        "contract": "contracts/RandomIpfsNft.sol:RandomIpfsNft",
        "label": "_tokenApprovals",
        "offset": 0,
        "slot": "4",
        "type": "t_mapping(t_uint256,t_address)"
      },
      {
        "astId": 192,
        "contract": "contracts/RandomIpfsNft.sol:RandomIpfsNft",
        "label": "_operatorApprovals",
        "offset": 0,
        "slot": "5",
        "type": "t_mapping(t_address,t_mapping(t_address,t_bool))"
      },
      {
        "astId": 1160,
        "contract": "contracts/RandomIpfsNft.sol:RandomIpfsNft",
        "label": "_tokenURIs",
        "offset": 0,
        "slot": "6",
        "type": "t_mapping(t_uint256,t_string_storage)"
      },
      {
        "astId": 1909,
        "contract": "contracts/RandomIpfsNft.sol:RandomIpfsNft",
        "label": "s_requestIdToSender",
        "offset": 0,
        "slot": "7",
        "type": "t_mapping(t_uint256,t_address)"
      },
      {
        "astId": 1913,
        "contract": "contracts/RandomIpfsNft.sol:RandomIpfsNft",
        "label": "s_dogTokenUris",
        "offset": 0,
        "slot": "8",
        "type": "t_array(t_string_storage)3_storage"
      },
      {
        "astId": 1915,
        "contract": "contracts/RandomIpfsNft.sol:RandomIpfsNft",
        "label": "s_tokenCounter",
        "offset": 0,
        "slot": "11",
        "type": "t_uint256"
      }
    ],
    "types": {
      "t_address": {
        "encoding": "inplace",
        "label": "address",
        "numberOfBytes": "20"
      },
      "t_array(t_string_storage)3_storage": {
        "base": "t_string_storage",
        "encoding": "inplace",
        "label": "string[3]",
        "numberOfBytes": "96"
      },
      "t_bool": {
        "encoding": "inplace",
        "label": "bool",
        "numberOfBytes": "1"
      },
      "t_mapping(t_address,t_bool)": {
        "encoding": "mapping",
        "key": "t_address",
        "label": "mapping(address => bool)",
        "numberOfBytes": "32",
        "value": "t_bool"
      },
      "t_mapping(t_address,t_mapping(t_address,t_bool))": {
        "encoding": "mapping",
        "key": "t_address",
        "label": "mapping(address => mapping(address => bool))",
        "numberOfBytes": "32",
        "value": "t_mapping(t_address,t_bool)"
      },
      "t_mapping(t_address,t_uint256)": {
        "encoding": "mapping",
        "key": "t_address",
        "label": "mapping(address => uint256)",
        "numberOfBytes": "32",
        "value": "t_uint256"
      },
      "t_mapping(t_uint256,t_address)": {
        "encoding": "mapping",
        "key": "t_uint256",
        "label": "mapping(uint256 => address)",
        "numberOfBytes": "32",
        "value": "t_address"
      },
      "t_mapping(t_uint256,t_string_storage)": {
        "encoding": "mapping",
        "key": "t_uint256",
        "label": "mapping(uint256 => string)",
        "numberOfBytes": "32",
        "value": "t_string_storage"
      },
      "t_string_storage": {
        "encoding": "bytes",
        "label": "string",
        "numberOfBytes": "32"
      },
      "t_uint256": {
        "encoding": "inplace",
        "label": "uint256",
        "numberOfBytes": "32"
      }
    }
  }
}